{
  "contractName": "AntEggsGame",
  "abi": [
    {
      "constant": true,
      "inputs": [
        {
          "name": "",
          "type": "uint256"
        }
      ],
      "name": "ants",
      "outputs": [
        {
          "name": "antId",
          "type": "uint256"
        },
        {
          "name": "timeOfLastEgg",
          "type": "uint256"
        },
        {
          "name": "totalEggsAvailable",
          "type": "uint256"
        },
        {
          "name": "percentageOfDying",
          "type": "uint256"
        }
      ],
      "payable": false,
      "stateMutability": "view",
      "type": "function"
    },
    {
      "constant": false,
      "inputs": [
        {
          "name": "amount",
          "type": "uint256"
        }
      ],
      "name": "sellEggs",
      "outputs": [
        {
          "name": "value",
          "type": "uint256"
        }
      ],
      "payable": false,
      "stateMutability": "nonpayable",
      "type": "function"
    },
    {
      "constant": false,
      "inputs": [
        {
          "name": "antIndex",
          "type": "uint256"
        },
        {
          "name": "to",
          "type": "address"
        }
      ],
      "name": "transferAnt",
      "outputs": [],
      "payable": false,
      "stateMutability": "nonpayable",
      "type": "function"
    },
    {
      "constant": false,
      "inputs": [
        {
          "name": "amount",
          "type": "uint256"
        },
        {
          "name": "to",
          "type": "address"
        }
      ],
      "name": "transferEggs",
      "outputs": [],
      "payable": false,
      "stateMutability": "nonpayable",
      "type": "function"
    },
    {
      "constant": true,
      "inputs": [],
      "name": "timeOfEggCreation",
      "outputs": [
        {
          "name": "",
          "type": "uint256"
        }
      ],
      "payable": false,
      "stateMutability": "view",
      "type": "function"
    },
    {
      "constant": false,
      "inputs": [],
      "name": "buyEggs",
      "outputs": [],
      "payable": true,
      "stateMutability": "payable",
      "type": "function"
    },
    {
      "constant": true,
      "inputs": [
        {
          "name": "",
          "type": "address"
        }
      ],
      "name": "eggsOwner",
      "outputs": [
        {
          "name": "",
          "type": "uint256"
        }
      ],
      "payable": false,
      "stateMutability": "view",
      "type": "function"
    },
    {
      "constant": true,
      "inputs": [],
      "name": "owner",
      "outputs": [
        {
          "name": "",
          "type": "address"
        }
      ],
      "payable": false,
      "stateMutability": "view",
      "type": "function"
    },
    {
      "constant": true,
      "inputs": [],
      "name": "price",
      "outputs": [
        {
          "name": "",
          "type": "uint256"
        }
      ],
      "payable": false,
      "stateMutability": "view",
      "type": "function"
    },
    {
      "constant": true,
      "inputs": [
        {
          "name": "",
          "type": "address"
        },
        {
          "name": "",
          "type": "uint256"
        }
      ],
      "name": "antsOwner",
      "outputs": [
        {
          "name": "",
          "type": "uint256"
        }
      ],
      "payable": false,
      "stateMutability": "view",
      "type": "function"
    },
    {
      "inputs": [],
      "payable": false,
      "stateMutability": "nonpayable",
      "type": "constructor"
    },
    {
      "anonymous": false,
      "inputs": [
        {
          "indexed": false,
          "name": "from",
          "type": "address"
        },
        {
          "indexed": false,
          "name": "totalEggsAvailable",
          "type": "uint256"
        },
        {
          "indexed": false,
          "name": "percentageOfDying",
          "type": "uint256"
        }
      ],
      "name": "CreateAnt",
      "type": "event"
    },
    {
      "anonymous": false,
      "inputs": [
        {
          "indexed": false,
          "name": "from",
          "type": "address"
        },
        {
          "indexed": false,
          "name": "antIndex",
          "type": "uint256"
        },
        {
          "indexed": false,
          "name": "totalEggsAvailable",
          "type": "uint256"
        }
      ],
      "name": "CreateEggFromAnt",
      "type": "event"
    },
    {
      "anonymous": false,
      "inputs": [
        {
          "indexed": false,
          "name": "from",
          "type": "address"
        },
        {
          "indexed": false,
          "name": "to",
          "type": "address"
        },
        {
          "indexed": false,
          "name": "antId",
          "type": "uint256"
        }
      ],
      "name": "TransferAnt",
      "type": "event"
    },
    {
      "anonymous": false,
      "inputs": [
        {
          "indexed": false,
          "name": "from",
          "type": "address"
        },
        {
          "indexed": false,
          "name": "value",
          "type": "uint256"
        },
        {
          "indexed": false,
          "name": "amount",
          "type": "uint256"
        }
      ],
      "name": "BuyEgg",
      "type": "event"
    },
    {
      "anonymous": false,
      "inputs": [
        {
          "indexed": false,
          "name": "from",
          "type": "address"
        },
        {
          "indexed": false,
          "name": "value",
          "type": "uint256"
        },
        {
          "indexed": false,
          "name": "amount",
          "type": "uint256"
        }
      ],
      "name": "SellEgg",
      "type": "event"
    },
    {
      "anonymous": false,
      "inputs": [
        {
          "indexed": false,
          "name": "from",
          "type": "address"
        },
        {
          "indexed": false,
          "name": "to",
          "type": "address"
        },
        {
          "indexed": false,
          "name": "amount",
          "type": "uint256"
        }
      ],
      "name": "TransferEgg",
      "type": "event"
    },
    {
      "constant": false,
      "inputs": [],
      "name": "createNewAnt",
      "outputs": [],
      "payable": false,
      "stateMutability": "nonpayable",
      "type": "function"
    },
    {
      "constant": false,
      "inputs": [
        {
          "name": "antIndex",
          "type": "uint256"
        }
      ],
      "name": "createEggFromAnt",
      "outputs": [],
      "payable": false,
      "stateMutability": "nonpayable",
      "type": "function"
    }
  ],
  "bytecode": "0x608060405234801561001057600080fd5b50662386f26fc10000600181905550336000806101000a81548173ffffffffffffffffffffffffffffffffffffffff021916908373ffffffffffffffffffffffffffffffffffffffff16021790555061025860048190555033600360006101000a81548173ffffffffffffffffffffffffffffffffffffffff021916908373ffffffffffffffffffffffffffffffffffffffff160217905550611724806100b86000396000f3fe6080604052600436106100ba576000357c0100000000000000000000000000000000000000000000000000000000900463ffffffff168063109dcfe6146100bf57806315fbdf9b146101235780631b33bc4b14610172578063251217e6146101cd5780633ea0ce16146101e45780634d30fb5c1461023f5780634f74acfe1461026a57806372b384e5146102745780638da5cb5b146102d9578063a035b1fe14610330578063b0c8e2a61461035b578063e48a211314610396575b600080fd5b3480156100cb57600080fd5b506100f8600480360360208110156100e257600080fd5b8101908080359060200190929190505050610405565b6040518085815260200184815260200183815260200182815260200194505050505060405180910390f35b34801561012f57600080fd5b5061015c6004803603602081101561014657600080fd5b8101908080359060200190929190505050610444565b6040518082815260200191505060405180910390f35b34801561017e57600080fd5b506101cb6004803603604081101561019557600080fd5b8101908080359060200190929190803573ffffffffffffffffffffffffffffffffffffffff1690602001909291905050506106bf565b005b3480156101d957600080fd5b506101e2610921565b005b3480156101f057600080fd5b5061023d6004803603604081101561020757600080fd5b8101908080359060200190929190803573ffffffffffffffffffffffffffffffffffffffff1690602001909291905050506109af565b005b34801561024b57600080fd5b50610254610c35565b6040518082815260200191505060405180910390f35b610272610c3b565b005b34801561028057600080fd5b506102c36004803603602081101561029757600080fd5b81019080803573ffffffffffffffffffffffffffffffffffffffff169060200190929190505050610dd9565b6040518082815260200191505060405180910390f35b3480156102e557600080fd5b506102ee610df1565b604051808273ffffffffffffffffffffffffffffffffffffffff1673ffffffffffffffffffffffffffffffffffffffff16815260200191505060405180910390f35b34801561033c57600080fd5b50610345610e17565b6040518082815260200191505060405180910390f35b34801561036757600080fd5b506103946004803603602081101561037e57600080fd5b8101908080359060200190929190505050610e1d565b005b3480156103a257600080fd5b506103ef600480360360408110156103b957600080fd5b81019080803573ffffffffffffffffffffffffffffffffffffffff16906020019092919080359060200190929190505050610f22565b6040518082815260200191505060405180910390f35b60058181548110151561041457fe5b90600052602060002090600402016000915090508060000154908060010154908060020154908060030154905084565b600081600260003373ffffffffffffffffffffffffffffffffffffffff1673ffffffffffffffffffffffffffffffffffffffff1681526020019081526020016000205481111515156104fe576040517f08c379a000000000000000000000000000000000000000000000000000000000815260040180806020018281038252600f8152602001807f4e6f7420656e6f7567682065676773000000000000000000000000000000000081525060200191505060405180910390fd5b61055083600260003373ffffffffffffffffffffffffffffffffffffffff1673ffffffffffffffffffffffffffffffffffffffff16815260200190815260200160002054610f5290919063ffffffff16565b600260003373ffffffffffffffffffffffffffffffffffffffff1673ffffffffffffffffffffffffffffffffffffffff16815260200190815260200160002081905550600154830291503373ffffffffffffffffffffffffffffffffffffffff166108fc839081150290604051600060405180830381858888f193505050501515610643576040517f08c379a000000000000000000000000000000000000000000000000000000000815260040180806020018281038252601b8152602001807f56616c756520636f756c64206e6f742062652072657475726e6564000000000081525060200191505060405180910390fd5b7f3bb27c599d684b7e8e182171c0e96d07a990be7061a09c749db4dcfe4dd44ca1338385604051808473ffffffffffffffffffffffffffffffffffffffff1673ffffffffffffffffffffffffffffffffffffffff168152602001838152602001828152602001935050505060405180910390a181915050919050565b8180600660003373ffffffffffffffffffffffffffffffffffffffff1673ffffffffffffffffffffffffffffffffffffffff16815260200190815260200160002080549050111515610779576040517f08c379a000000000000000000000000000000000000000000000000000000000815260040180806020018281038252600f8152602001807f4e6f7420656e6f75676820616e7473000000000000000000000000000000000081525060200191505060405180910390fd5b60006107858233610f74565b141515156107fb576040517f08c379a00000000000000000000000000000000000000000000000000000000081526004018080602001828103825260148152602001807f416e74206e6f206c6f6e6765722065786973747300000000000000000000000081525060200191505060405180910390fd5b60006108078433610f74565b9050600660008473ffffffffffffffffffffffffffffffffffffffff1673ffffffffffffffffffffffffffffffffffffffff16815260200190815260200160002081908060018154018082558091505090600182039060005260206000200160009091929091909150555061087c8433610fd5565b7f3d412fbf0bc4c145eff9800ae048c5933d1fedc13f4a5343669369f28b339893338483604051808473ffffffffffffffffffffffffffffffffffffffff1673ffffffffffffffffffffffffffffffffffffffff1681526020018373ffffffffffffffffffffffffffffffffffffffff1673ffffffffffffffffffffffffffffffffffffffff168152602001828152602001935050505060405180910390a150505050565b610929611033565b600080610934611183565b915091507fee837eb845e90e99d1b29000171aec5459f47dfa2845280e106cc6228252d17a338383604051808473ffffffffffffffffffffffffffffffffffffffff1673ffffffffffffffffffffffffffffffffffffffff168152602001838152602001828152602001935050505060405180910390a15050565b81600260003373ffffffffffffffffffffffffffffffffffffffff1673ffffffffffffffffffffffffffffffffffffffff168152602001908152602001600020548111151515610a67576040517f08c379a000000000000000000000000000000000000000000000000000000000815260040180806020018281038252600f8152602001807f4e6f7420656e6f7567682065676773000000000000000000000000000000000081525060200191505060405180910390fd5b610ab983600260008573ffffffffffffffffffffffffffffffffffffffff1673ffffffffffffffffffffffffffffffffffffffff168152602001908152602001600020546112ac90919063ffffffff16565b600260008473ffffffffffffffffffffffffffffffffffffffff1673ffffffffffffffffffffffffffffffffffffffff16815260200190815260200160002081905550610b4e83600260003373ffffffffffffffffffffffffffffffffffffffff1673ffffffffffffffffffffffffffffffffffffffff16815260200190815260200160002054610f5290919063ffffffff16565b600260003373ffffffffffffffffffffffffffffffffffffffff1673ffffffffffffffffffffffffffffffffffffffff168152602001908152602001600020819055507f8896eaeb2075baa91e07069486e3d4f12e09b6c43ba0742264b9ffb7ccb1a698338385604051808473ffffffffffffffffffffffffffffffffffffffff1673ffffffffffffffffffffffffffffffffffffffff1681526020018373ffffffffffffffffffffffffffffffffffffffff1673ffffffffffffffffffffffffffffffffffffffff168152602001828152602001935050505060405180910390a1505050565b60045481565b6001543410151515610cb5576040517f08c379a00000000000000000000000000000000000000000000000000000000081526004018080602001828103825260118152602001807f4e6f7420656e6f7567682065746865727300000000000000000000000000000081525060200191505060405180910390fd5b6000610ccc600154346112cd90919063ffffffff16565b9050610d2081600260003373ffffffffffffffffffffffffffffffffffffffff1673ffffffffffffffffffffffffffffffffffffffff168152602001908152602001600020546112ac90919063ffffffff16565b600260003373ffffffffffffffffffffffffffffffffffffffff1673ffffffffffffffffffffffffffffffffffffffff168152602001908152602001600020819055507fa916333ba6ea619e9129b1910d3ed016e106f7ad7d60a611b9daada8d4842e06333483604051808473ffffffffffffffffffffffffffffffffffffffff1673ffffffffffffffffffffffffffffffffffffffff168152602001838152602001828152602001935050505060405180910390a150565b60026020528060005260406000206000915090505481565b600360009054906101000a900473ffffffffffffffffffffffffffffffffffffffff1681565b60015481565b600080610e29836112f7565b91509150811515610ea2576040517f08c379a000000000000000000000000000000000000000000000000000000000815260040180806020018281038252600c8152602001807f54686520616e742064696564000000000000000000000000000000000000000081525060200191505060405180910390fd5b610eaa61159f565b7fe73cdf9440b72417743eb4b950f48e1e876a5322214878ca9e0a2694145e8005338483604051808473ffffffffffffffffffffffffffffffffffffffff1673ffffffffffffffffffffffffffffffffffffffff168152602001838152602001828152602001935050505060405180910390a1505050565b600660205281600052604060002081815481101515610f3d57fe5b90600052602060002001600091509150505481565b6000828211151515610f6357600080fd5b600082840390508091505092915050565b6000600660008373ffffffffffffffffffffffffffffffffffffffff1673ffffffffffffffffffffffffffffffffffffffff16815260200190815260200160002083815481101515610fc257fe5b9060005260206000200154905092915050565b600660008273ffffffffffffffffffffffffffffffffffffffff1673ffffffffffffffffffffffffffffffffffffffff1681526020019081526020016000208281548110151561102157fe5b90600052602060002001600090555050565b6000600260003373ffffffffffffffffffffffffffffffffffffffff1673ffffffffffffffffffffffffffffffffffffffff16815260200190815260200160002054141515156110eb576040517f08c379a000000000000000000000000000000000000000000000000000000000815260040180806020018281038252600f8152602001807f4e6f7420656e6f7567682065676773000000000000000000000000000000000081525060200191505060405180910390fd5b61113e6001600260003373ffffffffffffffffffffffffffffffffffffffff1673ffffffffffffffffffffffffffffffffffffffff16815260200190815260200160002054610f5290919063ffffffff16565b600260003373ffffffffffffffffffffffffffffffffffffffff1673ffffffffffffffffffffffffffffffffffffffff16815260200190815260200160002081905550565b6000806000611190611637565b60ff169050600061119f61167d565b90506111a96116cf565b6080604051908101604052806001600580549050018152602001600454420381526020018481526020018381525090506005819080600181540180825580915050906001820390600052602060002090600402016000909192909190915060008201518160000155602082015181600101556040820151816002015560608201518160030155505050600660003373ffffffffffffffffffffffffffffffffffffffff1673ffffffffffffffffffffffffffffffffffffffff168152602001908152602001600020816000015190806001815401808255809150509060018203906000526020600020016000909192909190915055508282945094505050509091565b60008082840190508381101515156112c357600080fd5b8091505092915050565b600080821115156112dd57600080fd5b600082848115156112ea57fe5b0490508091505092915050565b6000808280600660003373ffffffffffffffffffffffffffffffffffffffff1673ffffffffffffffffffffffffffffffffffffffff168152602001908152602001600020805490501115156113b4576040517f08c379a000000000000000000000000000000000000000000000000000000000815260040180806020018281038252600f8152602001807f4e6f7420656e6f75676820616e7473000000000000000000000000000000000081525060200191505060405180910390fd5b60006113c08233610f74565b14151515611436576040517f08c379a00000000000000000000000000000000000000000000000000000000081526004018080602001828103825260148152602001807f416e74206e6f206c6f6e6765722065786973747300000000000000000000000081525060200191505060405180910390fd5b6000611442853361169c565b905060008160020154141515156114c1576040517f08c379a00000000000000000000000000000000000000000000000000000000081526004018080602001828103825260208152602001807f416e742063616e6e6f742070726f6475636520616e79206d6f7265206567677381525060200191505060405180910390fd5b6004548160010154420310151515611541576040517f08c379a000000000000000000000000000000000000000000000000000000000815260040180806020018281038252601c8152602001807f4e6f7420726561647920746f20726570726f6475636520616761696e0000000081525060200191505060405180910390fd5b61154961167d565b8160030154101561158357806002016000815480929190600190039190505550428160010181905550600181600201549350935050611599565b61158d8533610fd5565b60008080905093509350505b50915091565b6115f26001600260003373ffffffffffffffffffffffffffffffffffffffff1673ffffffffffffffffffffffffffffffffffffffff168152602001908152602001600020546112ac90919063ffffffff16565b600260003373ffffffffffffffffffffffffffffffffffffffff1673ffffffffffffffffffffffffffffffffffffffff16815260200190815260200160002081905550565b600060fb42446040516020018083815260200182815260200192505050604051602081830303815290604052805190602001206001900481151561167757fe5b06905090565b60006001606460014303406001900481151561169557fe5b0601905090565b6000600560016116ac8585610f74565b038154811015156116b957fe5b9060005260206000209060040201905092915050565b60806040519081016040528060008152602001600081526020016000815260200160008152509056fea165627a7a72305820d41e947bb43c8c261edfb54cbd9f9014a0aa15244df72c06626e50d1e7cc59740029",
  "source": "pragma solidity >=0.4.21 <0.6.0;\nimport \"./EggToken.sol\";\nimport \"./AntToken.sol\";\n\n\ncontract AntEggsGame is EggToken, AntToken {\n\n    event CreateAnt(address from, uint totalEggsAvailable, uint percentageOfDying);\n    event CreateEggFromAnt(address from, uint antIndex, uint totalEggsAvailable);\n\n    constructor() public {}\n\n    function createNewAnt () public {\n        decreaseEggs();\n        (uint totalEggsAvailable, uint percentageOfDying) = createAnt();\n        emit CreateAnt(msg.sender, totalEggsAvailable, percentageOfDying);\n    }\n\n    function createEggFromAnt (uint antIndex) public {\n        (bool antWasReproduced, uint totalEggsAvailable) = reproduceAnt(antIndex);\n        require(antWasReproduced, \"The ant died\");\n        increaseEggs();\n        emit CreateEggFromAnt(msg.sender, antIndex, totalEggsAvailable);\n    }\n\n}\n",
  "sourcePath": "/home/nicole/Desktop/Repos/e11/contracts/AntEggsGame.sol",
  "compiler": {
    "name": "solc",
    "version": "0.5.0+commit.1d4f565a.Emscripten.clang"
  },
  "schemaVersion": "3.0.6",
  "updatedAt": "2019-04-21T21:04:37.545Z",
  "devdoc": {
    "methods": {}
  },
  "userdoc": {
    "methods": {}
  }
}