{
  "contractName": "AntToken",
  "abi": [
    {
      "constant": true,
      "inputs": [
        {
          "name": "",
          "type": "uint256"
        }
      ],
      "name": "ants",
      "outputs": [
        {
          "name": "antId",
          "type": "uint256"
        },
        {
          "name": "timeOfLastEgg",
          "type": "uint256"
        },
        {
          "name": "totalEggsAvailable",
          "type": "uint256"
        },
        {
          "name": "percentageOfDying",
          "type": "uint256"
        }
      ],
      "payable": false,
      "stateMutability": "view",
      "type": "function",
      "signature": "0x109dcfe6"
    },
    {
      "constant": true,
      "inputs": [],
      "name": "timeOfEggCreation",
      "outputs": [
        {
          "name": "",
          "type": "uint256"
        }
      ],
      "payable": false,
      "stateMutability": "view",
      "type": "function",
      "signature": "0x4d30fb5c"
    },
    {
      "constant": true,
      "inputs": [],
      "name": "owner",
      "outputs": [
        {
          "name": "",
          "type": "address"
        }
      ],
      "payable": false,
      "stateMutability": "view",
      "type": "function",
      "signature": "0x8da5cb5b"
    },
    {
      "constant": true,
      "inputs": [
        {
          "name": "",
          "type": "address"
        },
        {
          "name": "",
          "type": "uint256"
        }
      ],
      "name": "antsOwner",
      "outputs": [
        {
          "name": "",
          "type": "uint256"
        }
      ],
      "payable": false,
      "stateMutability": "view",
      "type": "function",
      "signature": "0xe48a2113"
    },
    {
      "inputs": [],
      "payable": false,
      "stateMutability": "nonpayable",
      "type": "constructor",
      "signature": "constructor"
    },
    {
      "anonymous": false,
      "inputs": [
        {
          "indexed": false,
          "name": "from",
          "type": "address"
        },
        {
          "indexed": false,
          "name": "to",
          "type": "address"
        },
        {
          "indexed": false,
          "name": "antId",
          "type": "uint256"
        }
      ],
      "name": "TransferAnt",
      "type": "event",
      "signature": "0x3d412fbf0bc4c145eff9800ae048c5933d1fedc13f4a5343669369f28b339893"
    },
    {
      "constant": false,
      "inputs": [
        {
          "name": "antIndex",
          "type": "uint256"
        },
        {
          "name": "to",
          "type": "address"
        }
      ],
      "name": "transferAnt",
      "outputs": [],
      "payable": false,
      "stateMutability": "nonpayable",
      "type": "function",
      "signature": "0x1b33bc4b"
    }
  ],
  "bytecode": "0x608060405234801561001057600080fd5b50610258600181905550336000806101000a81548173ffffffffffffffffffffffffffffffffffffffff021916908373ffffffffffffffffffffffffffffffffffffffff160217905550610609806100696000396000f3fe60806040526004361061006d576000357c0100000000000000000000000000000000000000000000000000000000900463ffffffff168063109dcfe6146100725780631b33bc4b146100d65780634d30fb5c146101315780638da5cb5b1461015c578063e48a2113146101b3575b600080fd5b34801561007e57600080fd5b506100ab6004803603602081101561009557600080fd5b8101908080359060200190929190505050610222565b6040518085815260200184815260200183815260200182815260200194505050505060405180910390f35b3480156100e257600080fd5b5061012f600480360360408110156100f957600080fd5b8101908080359060200190929190803573ffffffffffffffffffffffffffffffffffffffff169060200190929190505050610261565b005b34801561013d57600080fd5b506101466104c3565b6040518082815260200191505060405180910390f35b34801561016857600080fd5b506101716104c9565b604051808273ffffffffffffffffffffffffffffffffffffffff1673ffffffffffffffffffffffffffffffffffffffff16815260200191505060405180910390f35b3480156101bf57600080fd5b5061020c600480360360408110156101d657600080fd5b81019080803573ffffffffffffffffffffffffffffffffffffffff169060200190929190803590602001909291905050506104ee565b6040518082815260200191505060405180910390f35b60028181548110151561023157fe5b90600052602060002090600402016000915090508060000154908060010154908060020154908060030154905084565b8180600360003373ffffffffffffffffffffffffffffffffffffffff1673ffffffffffffffffffffffffffffffffffffffff1681526020019081526020016000208054905011151561031b576040517f08c379a000000000000000000000000000000000000000000000000000000000815260040180806020018281038252600f8152602001807f4e6f7420656e6f75676820616e7473000000000000000000000000000000000081525060200191505060405180910390fd5b6000610327823361051e565b1415151561039d576040517f08c379a00000000000000000000000000000000000000000000000000000000081526004018080602001828103825260148152602001807f416e74206e6f206c6f6e6765722065786973747300000000000000000000000081525060200191505060405180910390fd5b60006103a9843361051e565b9050600360008473ffffffffffffffffffffffffffffffffffffffff1673ffffffffffffffffffffffffffffffffffffffff16815260200190815260200160002081908060018154018082558091505090600182039060005260206000200160009091929091909150555061041e843361057f565b7f3d412fbf0bc4c145eff9800ae048c5933d1fedc13f4a5343669369f28b339893338483604051808473ffffffffffffffffffffffffffffffffffffffff1673ffffffffffffffffffffffffffffffffffffffff1681526020018373ffffffffffffffffffffffffffffffffffffffff1673ffffffffffffffffffffffffffffffffffffffff168152602001828152602001935050505060405180910390a150505050565b60015481565b6000809054906101000a900473ffffffffffffffffffffffffffffffffffffffff1681565b60036020528160005260406000208181548110151561050957fe5b90600052602060002001600091509150505481565b6000600360008373ffffffffffffffffffffffffffffffffffffffff1673ffffffffffffffffffffffffffffffffffffffff1681526020019081526020016000208381548110151561056c57fe5b9060005260206000200154905092915050565b600360008273ffffffffffffffffffffffffffffffffffffffff1673ffffffffffffffffffffffffffffffffffffffff168152602001908152602001600020828154811015156105cb57fe5b9060005260206000200160009055505056fea165627a7a72305820ecd14385e85a588028b7db954dda28465aea97875ad9e7af09bd16dff34ebea90029",
  "source": "pragma solidity >=0.4.21 <0.6.0;\n\n\ncontract AntToken {\n\n    address public owner;\n    uint public timeOfEggCreation;\n\n    struct Ant {\n        uint antId;\n        uint timeOfLastEgg;\n        uint totalEggsAvailable;\n        uint percentageOfDying;\n    }\n\n    Ant[] public ants;\n    mapping (address => uint[]) public antsOwner;\n\n    event TransferAnt(address from, address to, uint antId);\n\n    constructor() public {\n        timeOfEggCreation = 600;\n        owner = msg.sender;\n    }\n\n    modifier checkAntIndex(uint antIndex) {\n        require(antsOwner[msg.sender].length > antIndex, \"Not enough ants\");\n        require(getAntId(antIndex, msg.sender) != 0, \"Ant no longer exists\");\n        _;\n    }\n\n    function transferAnt (uint antIndex, address to) external checkAntIndex(antIndex) {\n        uint antId = getAntId(antIndex, msg.sender);\n        antsOwner[to].push(antId);\n        killAnt(antIndex, msg.sender);\n        emit TransferAnt(msg.sender, to, antId);\n    }\n\n    function createAnt () internal returns (uint, uint) {\n        uint totalEggsAvailable = randomEggs();\n        uint percentageOfDying = randomPercentage();\n        Ant memory ant = Ant(\n            ants.length + 1,\n            now - timeOfEggCreation,\n            totalEggsAvailable,\n            percentageOfDying\n        );\n        ants.push(ant);\n        antsOwner[msg.sender].push(ant.antId);\n        return (totalEggsAvailable, percentageOfDying);\n    }\n\n    function reproduceAnt (uint antIndex) internal checkAntIndex(antIndex)\n        returns (bool, uint) {\n            Ant storage ant = getAnt(antIndex, msg.sender);\n            require(ant.totalEggsAvailable != 0, \"Ant cannot produce any more eggs\");\n            require((now - ant.timeOfLastEgg) >= timeOfEggCreation, \"Not ready to reproduce again\");\n            if (ant.percentageOfDying < randomPercentage()) {\n                ant.totalEggsAvailable--;\n                ant.timeOfLastEgg = now;\n                return (true, ant.totalEggsAvailable);\n            } else {\n                killAnt(antIndex, msg.sender);\n                return (false, 0);\n            }\n        }\n\n    function killAnt (uint antIndex, address to) private {\n        delete antsOwner[to][antIndex];\n    }\n\n    function getAnt (uint antIndex, address to) private view returns (Ant storage) {\n        return ants[getAntId(antIndex, to) - 1];\n    }\n    \n    function getAntId(uint antIndex, address to) private view returns (uint) {\n        return antsOwner[to][antIndex];\n    }\n\n    function randomEggs() private view returns (uint8) {\n        return uint8(uint256(keccak256(abi.encodePacked(block.timestamp, block.difficulty)))%251);\n    }\n\n    function randomPercentage() private view returns (uint) {\n        return uint(blockhash(block.number-1))%100 + 1;\n    }\n\n}\n",
  "sourcePath": "/home/nicole/Desktop/Repos/ant-eggs-game/contracts/AntToken.sol",
  "compiler": {
    "name": "solc",
    "version": "0.5.0+commit.1d4f565a.Emscripten.clang"
  },
  "schemaVersion": "3.0.6",
  "updatedAt": "2019-04-22T20:12:16.033Z",
  "devdoc": {
    "methods": {}
  },
  "userdoc": {
    "methods": {}
  }
}