{
  "contractName": "EggToken",
  "abi": [
    {
      "constant": true,
      "inputs": [
        {
          "name": "",
          "type": "address"
        }
      ],
      "name": "eggsOwner",
      "outputs": [
        {
          "name": "",
          "type": "uint256"
        }
      ],
      "payable": false,
      "stateMutability": "view",
      "type": "function"
    },
    {
      "constant": true,
      "inputs": [],
      "name": "owner",
      "outputs": [
        {
          "name": "",
          "type": "address"
        }
      ],
      "payable": false,
      "stateMutability": "view",
      "type": "function"
    },
    {
      "constant": true,
      "inputs": [],
      "name": "price",
      "outputs": [
        {
          "name": "",
          "type": "uint256"
        }
      ],
      "payable": false,
      "stateMutability": "view",
      "type": "function"
    },
    {
      "inputs": [],
      "payable": false,
      "stateMutability": "nonpayable",
      "type": "constructor"
    },
    {
      "anonymous": false,
      "inputs": [
        {
          "indexed": false,
          "name": "from",
          "type": "address"
        },
        {
          "indexed": false,
          "name": "value",
          "type": "uint256"
        },
        {
          "indexed": false,
          "name": "amount",
          "type": "uint256"
        }
      ],
      "name": "BuyEgg",
      "type": "event"
    },
    {
      "anonymous": false,
      "inputs": [
        {
          "indexed": false,
          "name": "from",
          "type": "address"
        },
        {
          "indexed": false,
          "name": "value",
          "type": "uint256"
        },
        {
          "indexed": false,
          "name": "amount",
          "type": "uint256"
        }
      ],
      "name": "SellEgg",
      "type": "event"
    },
    {
      "anonymous": false,
      "inputs": [
        {
          "indexed": false,
          "name": "from",
          "type": "address"
        },
        {
          "indexed": false,
          "name": "to",
          "type": "address"
        },
        {
          "indexed": false,
          "name": "amount",
          "type": "uint256"
        }
      ],
      "name": "TransferEgg",
      "type": "event"
    },
    {
      "constant": false,
      "inputs": [],
      "name": "buyEggs",
      "outputs": [],
      "payable": true,
      "stateMutability": "payable",
      "type": "function"
    },
    {
      "constant": false,
      "inputs": [
        {
          "name": "amount",
          "type": "uint256"
        }
      ],
      "name": "sellEggs",
      "outputs": [
        {
          "name": "value",
          "type": "uint256"
        }
      ],
      "payable": false,
      "stateMutability": "nonpayable",
      "type": "function"
    },
    {
      "constant": false,
      "inputs": [
        {
          "name": "amount",
          "type": "uint256"
        },
        {
          "name": "to",
          "type": "address"
        }
      ],
      "name": "transferEggs",
      "outputs": [],
      "payable": false,
      "stateMutability": "nonpayable",
      "type": "function"
    }
  ],
  "bytecode": "0x608060405234801561001057600080fd5b50662386f26fc10000600181905550336000806101000a81548173ffffffffffffffffffffffffffffffffffffffff021916908373ffffffffffffffffffffffffffffffffffffffff1602179055506109938061006e6000396000f3fe608060405260043610610078576000357c0100000000000000000000000000000000000000000000000000000000900463ffffffff16806315fbdf9b1461007d5780633ea0ce16146100cc5780634f74acfe1461012757806372b384e5146101315780638da5cb5b14610196578063a035b1fe146101ed575b600080fd5b34801561008957600080fd5b506100b6600480360360208110156100a057600080fd5b8101908080359060200190929190505050610218565b6040518082815260200191505060405180910390f35b3480156100d857600080fd5b50610125600480360360408110156100ef57600080fd5b8101908080359060200190929190803573ffffffffffffffffffffffffffffffffffffffff169060200190929190505050610493565b005b61012f610719565b005b34801561013d57600080fd5b506101806004803603602081101561015457600080fd5b81019080803573ffffffffffffffffffffffffffffffffffffffff1690602001909291905050506108b7565b6040518082815260200191505060405180910390f35b3480156101a257600080fd5b506101ab6108cf565b604051808273ffffffffffffffffffffffffffffffffffffffff1673ffffffffffffffffffffffffffffffffffffffff16815260200191505060405180910390f35b3480156101f957600080fd5b506102026108f4565b6040518082815260200191505060405180910390f35b600081600260003373ffffffffffffffffffffffffffffffffffffffff1673ffffffffffffffffffffffffffffffffffffffff1681526020019081526020016000205481111515156102d2576040517f08c379a000000000000000000000000000000000000000000000000000000000815260040180806020018281038252600f8152602001807f4e6f7420656e6f7567682065676773000000000000000000000000000000000081525060200191505060405180910390fd5b61032483600260003373ffffffffffffffffffffffffffffffffffffffff1673ffffffffffffffffffffffffffffffffffffffff168152602001908152602001600020546108fa90919063ffffffff16565b600260003373ffffffffffffffffffffffffffffffffffffffff1673ffffffffffffffffffffffffffffffffffffffff16815260200190815260200160002081905550600154830291503373ffffffffffffffffffffffffffffffffffffffff166108fc839081150290604051600060405180830381858888f193505050501515610417576040517f08c379a000000000000000000000000000000000000000000000000000000000815260040180806020018281038252601b8152602001807f56616c756520636f756c64206e6f742062652072657475726e6564000000000081525060200191505060405180910390fd5b7f3bb27c599d684b7e8e182171c0e96d07a990be7061a09c749db4dcfe4dd44ca1338385604051808473ffffffffffffffffffffffffffffffffffffffff1673ffffffffffffffffffffffffffffffffffffffff168152602001838152602001828152602001935050505060405180910390a181915050919050565b81600260003373ffffffffffffffffffffffffffffffffffffffff1673ffffffffffffffffffffffffffffffffffffffff16815260200190815260200160002054811115151561054b576040517f08c379a000000000000000000000000000000000000000000000000000000000815260040180806020018281038252600f8152602001807f4e6f7420656e6f7567682065676773000000000000000000000000000000000081525060200191505060405180910390fd5b61059d83600260008573ffffffffffffffffffffffffffffffffffffffff1673ffffffffffffffffffffffffffffffffffffffff1681526020019081526020016000205461091c90919063ffffffff16565b600260008473ffffffffffffffffffffffffffffffffffffffff1673ffffffffffffffffffffffffffffffffffffffff1681526020019081526020016000208190555061063283600260003373ffffffffffffffffffffffffffffffffffffffff1673ffffffffffffffffffffffffffffffffffffffff168152602001908152602001600020546108fa90919063ffffffff16565b600260003373ffffffffffffffffffffffffffffffffffffffff1673ffffffffffffffffffffffffffffffffffffffff168152602001908152602001600020819055507f8896eaeb2075baa91e07069486e3d4f12e09b6c43ba0742264b9ffb7ccb1a698338385604051808473ffffffffffffffffffffffffffffffffffffffff1673ffffffffffffffffffffffffffffffffffffffff1681526020018373ffffffffffffffffffffffffffffffffffffffff1673ffffffffffffffffffffffffffffffffffffffff168152602001828152602001935050505060405180910390a1505050565b6001543410151515610793576040517f08c379a00000000000000000000000000000000000000000000000000000000081526004018080602001828103825260118152602001807f4e6f7420656e6f7567682065746865727300000000000000000000000000000081525060200191505060405180910390fd5b60006107aa6001543461093d90919063ffffffff16565b90506107fe81600260003373ffffffffffffffffffffffffffffffffffffffff1673ffffffffffffffffffffffffffffffffffffffff1681526020019081526020016000205461091c90919063ffffffff16565b600260003373ffffffffffffffffffffffffffffffffffffffff1673ffffffffffffffffffffffffffffffffffffffff168152602001908152602001600020819055507fa916333ba6ea619e9129b1910d3ed016e106f7ad7d60a611b9daada8d4842e06333483604051808473ffffffffffffffffffffffffffffffffffffffff1673ffffffffffffffffffffffffffffffffffffffff168152602001838152602001828152602001935050505060405180910390a150565b60026020528060005260406000206000915090505481565b6000809054906101000a900473ffffffffffffffffffffffffffffffffffffffff1681565b60015481565b600082821115151561090b57600080fd5b600082840390508091505092915050565b600080828401905083811015151561093357600080fd5b8091505092915050565b6000808211151561094d57600080fd5b6000828481151561095a57fe5b049050809150509291505056fea165627a7a723058200ea55a8b64a86cbfa7753adad1cc046ae404524ed1f858e26fc0ed4313218ce10029",
  "source": "pragma solidity >=0.4.21 <0.6.0;\nimport \"./SafeMath.sol\";\n\n\ncontract EggToken {\n\n    using SafeMath for uint;\n\n    address public owner;\n    uint public price;\n    mapping (address => uint) public eggsOwner;\n\n    event BuyEgg(address from, uint value, uint amount);\n    event SellEgg(address from, uint value, uint amount);\n    event TransferEgg(address from, address to, uint amount);\n\n    constructor() public {\n        price = 10000000000000000;\n        owner = msg.sender;\n    }\n\n    modifier checkEggAmount(uint amount) {\n        require(amount <= eggsOwner[msg.sender], \"Not enough eggs\");\n        _;\n    }\n\n    function buyEggs () external payable {\n        require(msg.value >= price, \"Not enough ethers\");\n        uint amount = msg.value.div(price);\n        eggsOwner[msg.sender] = eggsOwner[msg.sender].add(amount);\n        emit BuyEgg(msg.sender, msg.value, amount);\n    }\n\n    function sellEggs(uint amount) external checkEggAmount(amount) returns (uint value) {\n        eggsOwner[msg.sender] = eggsOwner[msg.sender].sub(amount);\n        value = amount * price;\n        require(msg.sender.send(value), \"Value could not be returned\");\n        emit SellEgg(msg.sender, value, amount);\n        return value;\n    }\n\n    function transferEggs (uint amount, address to) external checkEggAmount(amount) {\n        eggsOwner[to] = eggsOwner[to].add(amount);\n        eggsOwner[msg.sender] = eggsOwner[msg.sender].sub(amount);\n        emit TransferEgg(msg.sender, to, amount);\n    }\n\n    function decreaseEggs () internal {\n        require(eggsOwner[msg.sender] != 0, \"Not enough eggs\");\n        eggsOwner[msg.sender] = eggsOwner[msg.sender].sub(1);\n    }\n\n    function increaseEggs () internal {\n        eggsOwner[msg.sender] = eggsOwner[msg.sender].add(1);\n    }\n\n}\n",
  "sourcePath": "/home/nicole/Desktop/Repos/e11/contracts/EggToken.sol",
  "compiler": {
    "name": "solc",
    "version": "0.5.0+commit.1d4f565a.Emscripten.clang"
  },
  "schemaVersion": "3.0.6",
  "updatedAt": "2019-04-21T21:04:37.656Z",
  "devdoc": {
    "methods": {}
  },
  "userdoc": {
    "methods": {}
  }
}